:100000000C945E000C9486000C9486000C94860080
:100010000C9486000C9486000C9486000C94860048
:100020000C9486000C9486000C9486000C94860038
:100030000C9486000C9486000C9486000C94860028
:100040000C94FF0F0C9486000C946F100C944910C4
:100050000C9486000C9486000C9486000C94860008
:100060000C9486000C9486000000000024002700F9
:100070002A0000000008000201000003040700003D
:10008000000000000000010204081020408001026E
:1000900004081020010204081020000000002500C0
:1000A00028002B00040404040404040402020202D5
:1000B00002020303030303033F172A1411241FBE84
:1000C000CFEFD8E0DEBFCDBF11E0A0E0B1E0ECEAB9
:1000D000FFE302C005900D92A03DB107D9F726E0DD
:1000E000A0EDB1E001C01D92AF31B207E1F710E021
:1000F000CDE5D0E004C02197FE010E947C1ACC35EA
:10010000D107C9F70E943A140C94C91F0C9400003F
:10011000CF92DF92EF92FF92CF93DF93EC0126E62E
:1001200036E646E85FE36C857D858E859F850E9477
:10013000711E6B017C0120E030E0A9010E94971B39
:1001400018165CF420E030E040E85FE3C701B60138
:100150000E940B1E87FF0FC00AC020E030E040E87D
:100160005FEBC701B6010E94971B181624F4CC86DA
:10017000DD86EE86FF8626E636E646E85FE368859E
:1001800079858A859B850E94711E6B017C0120E028
:1001900030E0A9010E94971B18165CF420E030E0C3
:1001A00040E85FE3C701B6010E940B1E87FF0FC046
:1001B0000AC020E030E040E85FEBC701B6010E94D2
:1001C000971B181624F4C886D986EA86FB86DF9129
:1001D000CF91FF90EF90DF90CF9008954F925F9274
:1001E0006F927F928F929F92AF92BF92CF92DF9247
:1001F000FF920F931F93CF93DF9300D000D000D0D6
:10020000CDB7DEB78C01F72EC62ED12CFC0124858C
:1002100035854685578560817181828193810E94F1
:10022000831A0E94611B6C197D096F5F7F4F6330D9
:10023000710500F5F80180849184A284B38424813F
:10024000358146815781C501B4010E94831A0E94FD
:10025000611B2F2D30E02617370761F4B7FAB094F1
:10026000B7F8B094F80180869186A286B386C8015B
:100270000E948800F80184849584A684B784208134
:10028000318142815381C501B4010E94831A0E94C9
:10029000611B6C197D0977FF03C071956195710928
:1002A00062307105E9F5F8014084518462847384F9
:1002B0002481358146815781C301B2010E94831A8E
:1002C0000E94611B2F2D30E02617370749F577FA7A
:1002D000709477F87094F801408651866286738630
:1002E000B7FAB094B7F8B09484869586A686B78698
:1002F000C80126960FB6F894DEBF0FBECDBFDF91C2
:10030000CF911F910F91FF90DF90CF90BF90AF9052
:100310009F908F907F906F905F904F900C9488008B
:1003200026960FB6F894DEBF0FBECDBFDF91CF91FA
:100330001F910F91FF90DF90CF90BF90AF909F9053
:100340008F907F906F905F904F9008954F925F9243
:100350006F927F928F929F92AF92BF92CF92DF92D5
:10036000EF92FF920F931F93CF93DF93CDB7DEB73A
:1003700064970FB6F894DEBF0FBECDBF8C01DC01D1
:1003800014968D919D910D90BC91A02D89839A8397
:10039000AB83BC83F8012489358946895789BC0120
:1003A000CD010E94831A2B013C01D80154966D9314
:1003B0007D938D939C9357971C968D919D910D9055
:1003C000BC91A02D8D839E83AF83B887F801208DCB
:1003D000318D428D538DBC01CD010E94831A4B019A
:1003E0005C01D80158966D937D938D939C935B9798
:1003F00018968D919D910D90BC91A02D89879A871B
:10040000AB87BC87F801248D358D468D578DBC0197
:10041000CD010E94831A6D877E878F87988BD801C4
:100420005C966D937D938D939C935F9750968D9181
:100430009D910D90BC91A02D898B9A8BAB8BBC8B21
:10044000F80120A131A142A153A1BC01CD010E941C
:10045000831A6B017C01D80190966D937D938D93E7
:100460009C93939720E030E040E151E4C301B20156
:100470000E94971B181694F480E090E0A0E1B1E48C
:10048000F801848B958BA68BB78B89819A81AB8180
:10049000BC81B05884839583A683B78320E030E085
:1004A00040E151E4C501B4010E94971B181694F471
:1004B00080E090E0A0E1B1E4F801808F918FA28FFD
:1004C000B38F8D819E81AF81B885B0588487958721
:1004D000A687B78720E030E040E151E46D857E8556
:1004E0008F8598890E94971B181694F480E090E0FD
:1004F000A0E1B1E4F801848F958FA68FB78F89852D
:100500009A85AB85BC85B05880879187A287B387D1
:1005100020E030E040E151E4C701B6010E94971BA2
:10052000181694F480E090E0A0E1B1E4F80180A313
:1005300091A3A2A3B3A389899A89AB89BC89B05836
:10054000808B918BA28BB38B20E030E0A901D80186
:1005500054966D917D918D919C9157970E940B1EA1
:1005600087FF0EC0F801148A158A168A178A8481BB
:100570009581A681B781B05884839583A683B7837C
:1005800020E030E0A901D80158966D917D918D91C0
:100590009C915B970E940B1E87FF0EC0F801108E86
:1005A000118E128E138E84859585A685B785B058D9
:1005B00084879587A687B78720E030E0A901D80116
:1005C0005C966D917D918D919C915F970E940B1E21
:1005D00087FF0EC0F801148E158E168E178E80853B
:1005E0009185A285B385B05880879187A287B3870C
:1005F00020E030E0A901D80190966D917D918D9118
:100600009C9193970E940B1E87FF0EC0F80110A2C9
:1006100011A212A213A280899189A289B389B0582C
:10062000808B918BA28BB38B65E070E080E090E0D3
:1006300064960FB6F894DEBF0FBECDBFDF91CF91A9
:100640001F910F91FF90EF90DF90CF90BF90AF90F0
:100650009F908F907F906F905F904F900C94C50FFC
:10066000EF92FF920F931F93CF93DF93EC017B01E7
:10067000088119812A813B814D816C81C7010E94CB
:10068000FF109C81992351F0088119812A813B81B7
:100690006FEF690F4D81C7010E94FF109C81292FC8
:1006A00030E02930310554F4088119812A813B81D9
:1006B00061E0690F4D81C7010E94FF10DF91CF916A
:1006C0001F910F91FF90EF9008952F923F924F92BC
:1006D0005F926F927F928F929F92AF92BF92CF92D2
:1006E000DF92EF92FF920F931F93CF93DF93CDB7DB
:1006F000DEB766970FB6F894DEBF0FBECDBF3C01E4
:100700007C876B87DC016D917D918D919C91139716
:100710006F83788789879A8790966D917D918D9167
:100720009C9193970E94611B4B015C017E876D87B2
:10073000F301608D718D828D938D0E94611B9B01F1
:10074000AC01788B6F87D3015C966D917D918D9113
:100750009C915F97298B3A8B4B8B5C8B0E94611B22
:100760006B017C017C836B83F301648975898689C5
:1007700097890E94611B2B013C017E836D8329892F
:100780003A898F8598896817790754F4D901A41993
:10079000B509BE8BAD8BE1E0F0E0FA83E98309C0D7
:1007A000B201621B730B7E8B6D8B8FEF9FEF9A8371
:1007B0008983AB81BC81ED85FE85AE17BF073CF414
:1007C00014012C183D0888248394912C06C016012E
:1007D0002818390888248A94982C0F81188529852F
:1007E0003A854C2D642D8B859C850E94FF102D89A8
:1007F0003E8922163306B4F57101E21AF30AEE0CB3
:10080000FF1C6101CC0CDD1C5601A21AB30A6981E0
:100810007A81460E571EC201E981FA818E1B9F0B19
:100820002F8538898217930709F44DC0B7FC09C09A
:100830008B819C81880D991D9C838B83AE0CBF1C82
:1008400002C0AC0CBD1C0F81188529853A854B81EF
:10085000642D8B859C850E94FF10A981BA814A0E68
:100860005B1ED9CFAD88BE88A218B308AA0CBB1CEA
:100870006D887E88660C771C230142185308C80CCB
:10088000D91CC60188199909AD85BE858A179B07B1
:10089000D1F057FC0BC06D817E8189819A81680FF0
:1008A000791F7E836D834A0C5B1C02C0460C571C6B
:1008B0000F81188529853A854C2D6D818B859C8506
:1008C0000E94FF10DCCF66960FB6F894DEBF0FBE15
:1008D000CDBFDF91CF911F910F91FF90EF90DF90EF
:1008E000CF90BF90AF909F908F907F906F905F90D0
:1008F0004F903F902F900895CF92DF92EF92FF920A
:100900000F931F93CF93DF93EC0110E0612F70E002
:100910008A819B81FC012281338162177307A8F4CD
:10092000EC81FD81E60FF71FED5CFE4F2081222355
:1009300029F029E939E949E950E003C020E030E035
:10094000A9010E941A111F5FE1CF6E01F6E0CF0EE0
:10095000D11CC6010E94A6017E018AE2E80EF11CAC
:10096000C7010E94A6018E01025B1F4FC8010E94B1
:10097000A6016A817B81C6010E9465036A817B8131
:10098000C7010E9465036A817B81C801DF91CF9115
:100990001F910F91FF90EF90DF90CF900C94650323
:1009A0007F928F929F92AF92BF92CF92DF92EF92FF
:1009B000FF920F931F93CF93DF93EC01712C88EE7E
:1009C000882E83E0982EA12CB12CC12CD12C76013D
:1009D000D394072D10E08A819B81FC012281338111
:1009E0000217130788F5EC81FD81E00FF11FED5C24
:1009F000FE4F8081811116C00E94FD1DA50194014A
:100A00000E942F1F0E94121E20E030E04AE754E4AB
:100A10000E94EF1A2E813F81488559850E940B1E46
:100A200087FF10C00E94FD1DA70196010E942F1F85
:100A3000862F0E9457119B01AC01B8018A819B81CE
:100A40000E941A117394C5CF43E353E363E77FE336
:100A5000DF91CF911F910F91FF90EF90DF90CF909A
:100A6000BF90AF909F908F907F900C945412CF9234
:100A7000DF92EF92FF921F93CF93DF93EC0110E090
:100A8000E12EF12CCA80DB80F60182819381E81689
:100A9000F906A8F4EC81FD81EE0DFF1DED5CFE4F23
:100AA00090818E8191118058810F0E9457119B0176
:100AB000AC01B701C6010E941A111F5FE1CF8E8100
:100AC0009F8101968F3F910509F01CF49F838E83CF
:100AD00002C01F821E82DF91CF911F91FF90EF9085
:100AE000DF90CF900895CF93DF93EC010E94FD1D1E
:100AF0002AE030E040E050E00E942F1F79836883B5
:100B00001A821B821C821D820E94FD1D25E030E09E
:100B100040E050E00E942F1F0E94121E20E030E0B3
:100B200040E251E40E94EF1A2DEC3CEC4CE45EE311
:100B30000E94831A6E837F8388879987DF91CF9184
:100B40000895AF92BF92CF92DF92EF92FF920F93F0
:100B50001F93CF93DF937C01EC0126966C018AE60C
:100B6000C80ED11CD70114960D911C9115972E819A
:100B70003F81488559856A817B818C819D810E9456
:100B8000831A6A837B838C839D830E94681B888180
:100B9000080F111DBAE06B9F000D111D1124F80103
:100BA000ED5CFE4F8081882319F0CE010E94730511
:100BB0006A817B818C819D810E94681B6A3018F05C
:100BC000CE010E947305F701A280B3806A817B8108
:100BD0008C819D810E94681B462F6A3040F40FEF84
:100BE00010E020E030E06881C5010E94FF102A96E5
:100BF000CC15DD0509F0B6CFC0E06C2F70E0F70131
:100C000082819381DC0112962D913C91139762179A
:100C10007307A0F4D7011496ED91FC911597E60F98
:100C2000F71FED5CFE4F2081222331F02FEF3FEFC5
:100C30004FEF50E00E941A11CF5FDFCF45E85BEE27
:100C400061E57FE3DF91CF911F910F91FF90EF90CE
:100C5000DF90CF90BF90AF900C945412CF92DF9260
:100C6000EF92FF92CF93DF93EC01488359836A831D
:100C70007B8381E10E944213BC01990F880B990B81
:100C8000611571058105910511F00E94021E0E94F7
:100C9000FD1D29E0C22ED12CE12CF12CA7019601DB
:100CA0000E942F1F6F5F7F4F8F4F9F4F0E94121E1A
:100CB00020E030E040EF51E40E94EF1A6C837D8326
:100CC0008E839F830E94FD1DA70196010E942F1F06
:100CD0006F5F7F4F8F4F9F4F0E94121E20E030E0CA
:100CE00040EF51E40E94EF1A688779878A879B87D3
:100CF0000E94FD1DA70196010E942F1F6F5F7F4F6D
:100D00008F4F9F4F0E94121E20E030E040EF51E4D1
:100D10000E94EF1A6C877D878E879F870E94FD1D3A
:100D2000A70196010E942F1F6F5F7F4F8F4F9F4F2C
:100D30000E94121E20E030E040EF51E40E94EF1AC2
:100D4000688B798B8A8B9B8B0E94FD1D3AE0C32EAA
:100D5000D12CE12CF12CA70196010E942F1F0E949B
:100D6000121E6C8B7D8B8E8B9F8B0E94FD1DA701AD
:100D700096010E942F1F0E94121E688F798F8A8F02
:100D80009B8F0E94FD1DA70196010E942F1F0E94AC
:100D9000121E6C8F7D8F8E8F9F8F0E94FD1DA7016D
:100DA00096010E942F1F0E94121E68A379A38AA396
:100DB0009BA3DF91CF91FF90EF90DF90CF900895AC
:100DC0004F925F926F927F928F929F92AF92BF925B
:100DD000CF92DF92EF92FF920F931F93CF93DF9307
:100DE000DC011D968C911D971A96EC901A97189617
:100DF000ED91FC91199717968C901797482F50E01A
:100E00001B961C911B971C960C91EB018E1164C0D4
:100E1000CC0FDD1FC60FD71FCE0FDF1F882009F4B0
:100E200043C0912CA12CB12CFE01E40FF51F608171
:100E300070E0762F6627072E000C880B990BA50112
:100E400094010E94981F390155244424FE01E10FAA
:100E5000F11D608170E0762F6627072E000C880B4D
:100E6000990BA50194010E94981FB42FA32F922FD4
:100E7000882773016201C82AD92AEA2AFB2AC00FEF
:100E8000D11D688170E0762F6627072E000C880B35
:100E9000990BA50194010E94981FC701B601622B0E
:100EA000732B842B952B95C0FE01E40FF51F208139
:100EB000FE01E10FF11D6081862F90E0A0E0B0E01F
:100EC000BA2FA92F982F8827A22BC00FD11D2881B8
:100ED000BC01CD01622B7DC0CC0FDD1FCC0FDD1F0F
:100EE000CE0FDF1FF12C882009F458C0912CA12CC3
:100EF000B12CFE01E40FF51F608170E0762F6627AC
:100F0000072E000C880B990BA50194010E94981FD5
:100F1000722E662455244424FE01EE0DFF1D6081CF
:100F200070E0762F6627072E000C880B990BA50121
:100F300094010E94981F7901DD24CC24C428D5286F
:100F4000E628F728FE01E00FF11D608170E0762FA2
:100F50006627072E000C880B990BA50194010E94AF
:100F6000981FC22AD32AE42AF52AC10FD11D68810D
:100F700070E0762F6627072E000C880B990BA501D1
:100F800094010E94981FB42FA32F922F8827BC0191
:100F9000CD016C297D298E299F291BC0FE01E40FFC
:100FA000F51F2081FE01EE0DFF1D6081862F90E070
:100FB000A0E0B0E0DC0199278827B22BFE01E00F0A
:100FC000F11D2081822BC10FD11D2881BC01CD01D3
:100FD000722BDF91CF911F910F91FF90EF90DF90D7
:100FE000CF90BF90AF909F908F907F906F905F90C9
:100FF0004F9008958F929F92AF92BF92CF92DF92BF
:10100000EF92FF920F931F93CF93DF93FC014A015E
:10101000AA24BB24B82DC32ED42EE52EFF24AC2D3C
:10102000922F8781882361F0889E40011124B92D79
:10103000C89E60011124AD2D289FE00111249D2F31
:10104000D584C285E084F184DC1208C09B01220FA4
:10105000331F620F731F6E0D7F1D16C0660F771F43
:10106000660F771F6E0D7F1D052F1127222733274F
:10107000EB01CD0DD11D882329F0089F900111248B
:10108000232F01C0202F28838285EB01C80FD11D9B
:10109000B8838385EB01C80FD11DA8838485FB012C
:1010A000E80FF11D9083DF91CF911F910F91FF9079
:1010B000EF90DF90CF90BF90AF909F908F9008956A
:1010C0000F931F93DC0117968C911797882361F07B
:1010D000489FA0011124452F289F90011124232F00
:1010E000089F80011124012F1D968C911D971A963F
:1010F0009C911A971896ED91FC911997891308C045
:10110000CB01880F991F680F791F6E0F7F1F0AC0D0
:10111000660F771F660F771F6E0F7F1FFB01E80FAB
:10112000F11D10821A968C911A97FB01E80FF11DA0
:1011300040831B968C911B97FB01E80FF11D2083C8
:101140001C968C91FB01E80FF11D00831F910F91FC
:1011500008952F923F924F925F926F927F928F925B
:101160009F92AF92BF92CF92DF92EF92FF920F9336
:101170001F93CF93DF937C01C0E0D0E0D70114969A
:10118000ED91FC911597EC0FFD1FED5CFE4F8081FA
:1011900016967C9016971296CD90DC90139781301E
:1011A00059F48C2F870D0E9457119B01AC01BE0191
:1011B000C6010E941A1161C06C2FC6010E94A110C5
:1011C000182FF701048580849184A284B3848C2F26
:1011D000870D0E9457112B013C01F601EC0FFD1FFA
:1011E0002588312CD60112962D913C911397221609
:1011F000330608F042C0612F101708F4602F70E02A
:1012000080E090E00E94121E20E030E04AEA52E4C2
:101210000E94EF1AA50194010E94711E4B015C010E
:10122000C301B2017727882799270E94101EA501C4
:1012300094010E94711E0E94681B062F652D70E0AC
:1012400080E090E00E94101EA50194010E94711E92
:101250000E94681B162F662D70E080E090E00E94CF
:10126000101EA50194010E94711E0E94681B462F4A
:10127000212FB101C6010E9460082196C436D10514
:1012800009F07CCFF7018681978101968F3F910508
:1012900009F01CF49783868302C017821682DF91BF
:1012A000CF911F910F91FF90EF90DF90CF90BF9063
:1012B000AF909F908F907F906F905F904F903F90F6
:1012C0002F900895FC014481558160E070E0808595
:1012D00091850C94A11DFC01828193810E94620979
:1012E00064E170E080E090E00C94C50F2F923F9293
:1012F0004F925F926F927F928F929F92AF92BF9226
:10130000CF92DF92EF92FF920F931F93CF93DF93D1
:10131000CDB7DEB769970FB6F894DEBF0FBECDBF6D
:101320001C01DC0112968D919C9113970E94620919
:10133000398E288EF1017896FC83EB8391012A5D2A
:101340003F4F3F872E87D10114960D911C91159721
:10135000E88DF98D268537854089518962857385A9
:10136000848595850E94831A6B017C01A88DB98DB7
:101370001A966D937D938D939C931D9752962D9104
:101380003D914D915C91559716966D917D918D9102
:101390009C9119970E94831AE88DF98D6683778353
:1013A0008087918720E030E040E151E4C701B60139
:1013B0000E94971B18169CF4E88DF98D86859785F9
:1013C000A089B189B05886879787A08BB18B80E0C0
:1013D00090E0A0E1B1E482879387A487B58720E0FD
:1013E00030E0A901A88DB98D1A966D917D918D91EE
:1013F0009C911D970E940B1E87FF0FC0E88DF98DF1
:1014000086859785A089B189B05886879787A08BF4
:10141000B18B128613861486158620E030E040E1F9
:1014200051E4E88DF98D66817781808591850E94F0
:10143000971B18169CF4E88DF98D82899389A489ED
:10144000B589B058828B938BA48BB58B80E090E0EC
:10145000A0E1B1E486839783A087B18720E030E0E4
:10146000A901A88DB98D16966D917D918D919C9154
:1014700019970E940B1E87FF0FC0E88DF98D828996
:101480009389A489B589B058828B938BA48BB58B33
:101490001682178210861186E88DF98D6285738514
:1014A000848595850E94681BB62EA88DB98D5296AD
:1014B000CD90DD90ED90FC90559716962D913D9135
:1014C0004D915C911997C701B6010E94831A0E9441
:1014D000681BF801E60FF11DBAE0BB9EE00DF11D9F
:1014E0001124ED5CFE4F8081882351F0F7FAF094CF
:1014F000F7F8F094E88DF98DC28AD38AE48AF58AE8
:10150000A88DB98D1E96CD90DD90ED90FC905197F1
:101510001A962D913D914D915C911D97C701B60191
:101520000E94831A0E94681BB62EE88DF98D668191
:101530007781808591850E94681BF801E60FF11D77
:101540002AE0B29EE00DF11D1124ED5CFE4F80817A
:10155000882361F0F7FAF094F7F8F094A88DB98D2C
:101560001E96CD92DD92ED92FC925197E88DF98D09
:10157000268537854089518962857385848595855F
:101580000E94831A0E94681BB62EA88DB98D5296B0
:10159000CD90DD90ED90FC90559716962D913D9154
:1015A0004D915C911997C701B6010E94831A0E9460
:1015B000681B060F111DBAE0BB9E000D111D112402
:1015C000F801ED5CFE4F8081882399F0F7FAF094E2
:1015D000F7F8F094E88DF98DC28AD38AE48AF58A07
:1015E00086859785A089B189B05886879787A08B13
:1015F000B18BD10112960D90BC91A02DBE83AD830D
:101600001A821982EB81FC813297FD8BEC8B2B8146
:101610003C81215031093F8B2E8B89819A814596DF
:101620002D813E81280F391F3C872B8718861F820A
:10163000A88DB98D16966D917D918D919C9119977C
:101640000E94681B062F10E0E981FA810E1B1F0B18
:10165000A88DB98D1A966D917D918D919C911D9754
:101660000E94681B862F90E0EF81F8858E1B9F0BF0
:10167000009F9001019F300D300D1124889FB00113
:10168000899F700D700D1124620F731F072E000CBF
:10169000880B990B0E94121E6B017C0120E030E048
:1016A000A9010E940B1E882359F0A701960160E052
:1016B00070E080E89FE30E94EF1A2B013C0106C016
:1016C000412C512C80E8682E8FE3782EAB85BC85A9
:1016D0008C91E82FF0E0FA87E987AD81BE81129600
:1016E000AD90BC901397EA15FB0538F4BF01CD010E
:1016F0000E94E0066B017C0103C0C12CD12C760155
:10170000EC89FD890081AE89BF891C91EB81FC8148
:10171000F081FD8729853A852A153B0508F072C0BE
:101720006E2D70E080E090E00E94121E4B015C0183
:10173000602F70E080E090E00E94121EA3019201F1
:101740000E94711E9B01AC01C501B4010E94831A65
:101750000E94611B688B798B8A8B9B8B6D2D70E04F
:1017600080E090E00E94121E4B015C01612F70E04E
:1017700080E090E00E94121EA30192010E94711E5F
:101780009B01AC01C501B4010E94831A0E94611B38
:101790004B015C01DD24B601DD0C880B990B0E9426
:1017A000121E6B017C013D85632F70E080E090E0AC
:1017B0000E94121EA30192010E94711E9B01AC01A6
:1017C000C701B6010E94831A0E94611B8B016F3F03
:1017D000710519F014F00FEF10E094012F3F31055F
:1017E00019F014F02FEF30E0488959894F3F510527
:1017F00019F014F04FEF50E069857A858D819E8154
:101800000E9460088F819885019698878F83AB85A9
:10181000BC851A96BC87AB870A9709F009CFE98186
:10182000FA813196FA83E9833A9709F0F6CE888DEA
:10183000998D4396998F888FAB81BC815396BC83D9
:10184000AB83EE85FF858E179F0709F07CCD10E0F6
:10185000612F70E0F10182819381DC0112962D915C
:101860003C91139762177307A0F4D1011496ED9180
:10187000FC911597E60FF71FED5CFE4F20812223A8
:1018800031F02FEF3FEF4FEF50E00E941A111F5F32
:10189000DFCF69960FB6F894DEBF0FBECDBFDF91E4
:1018A000CF911F910F91FF90EF90DF90CF90BF905D
:1018B000AF909F908F907F906F905F904F903F90F0
:1018C0002F900895CF92DF92EF92FF920F931F9384
:1018D000CF93DF93CDB7DEB729970FB6F894DEBF6D
:1018E0000FBECDBF8C01DC0118968D919C9119978C
:1018F000892B09F49EC00E94A00FF801C684D784EA
:10190000E088F188DC01CB018C199D09AE09BF0983
:10191000C297A105B10578F3F894848195819A83E3
:1019200089830084F185E02D7F01BFEFEB1AFB0A6C
:1019300080818987F80190810288F389E02DD801A0
:1019400054968C91992309F430C09081982B9887F4
:101950009081809589238F838F818C8388E08B830E
:1019600058856F8149853B812C8189819A81D70176
:10197000508347FD252F3A952083262F39F0441FA9
:1019800000C000006083000000C0F2CF38E04D913D
:1019900060830000019761F7D8015396FC93EE93A2
:1019A000529749873B832C833AC09081982B988724
:1019B0009081809589238F838F818E8388E08D83AA
:1019C00058856F8149853D812E8189819A81D70112
:1019D000508347FD252F00C000C0208300C000C0F9
:1019E00000C000C000C060830000262F3A9541F07F
:1019F000441F000000C000C000C000C000C0E8CF0D
:101A000038E04D9100C0608300C0019709F7D8010C
:101A10005396FC93EE93529749873D832E839A8386
:101A2000898378940E94A00FF80166877787808B5E
:101A3000918B29960FB6F894DEBF0FBECDBFDF9114
:101A4000CF911F910F91FF90EF90DF90CF9008956D
:101A50006F927F928F929F92AF92BF92CF92DF92BE
:101A6000EF92FF920F931F93CF93DF931F92CDB707
:101A7000DEB73C01FC01828193810E94620953011F
:101A8000F6E0AF0EB11CF3012685378540895189F8
:101A900062857385848595850E94831AF301628728
:101AA000738784879587C288D388E488F5882681E0
:101AB000378140855185C701B6010E94831AF30121
:101AC00066837783808791870E94611B6A307105E6
:101AD0008CF0F7FAF094F7F8F094F301C28AD38A05
:101AE000E48AF58A80E090E0A0E1B1E48683978300
:101AF000A087B187F30166817781808591850E94F7
:101B0000611B77FF0EC0F30182899389A489B5898F
:101B1000B058828B938BA48BB58B1682178210865C
:101B20001186F301E480F5806301F6E1CF0ED11C4C
:101B3000F301638DC7010E948C11181619061CF45D
:101B4000F301828F0BC0892B49F0F3016681778105
:101B5000808591850E94681BF301628F4301FCE13F
:101B60008F0E911CF30161A1C7010E948C11181600
:101B700019061CF4F30180A30BC0892B49F0F30173
:101B800066817781808591850E94681BF30160A33F
:101B9000F30126893789408D518D628D738DC50182
:101BA0000E94EE00F301248D358D468D578D60A186
:101BB00071A1C5010E94EE00F30162817381C6012B
:101BC0000E943003F30162817381C4010E943003DB
:101BD000F30162857385848595850E94681B462F75
:101BE000F301668177818085918549830E94681B16
:101BF0000FEF10E098014981F301828193810E94E7
:101C0000FF10F30162857385848595850E94611BB1
:101C1000615071096830710508F489C04FEF5FEFBA
:101C20006FEF70E0F301828193810E94CA10F3018B
:101C300082849384A484B584838D682F70E080E0CF
:101C400090E00E94121E9B01AC01C501B4010E94EC
:101C5000821A6B017C0120E030E0A9010E94971BF1
:101C6000181624F0F7FAF094F7F8F094F30161A154
:101C700070E080E090E00E94121E9B01AC01C50163
:101C8000B4010E94821A4B015C0120E030E0A901FE
:101C90000E94971B181624F0B7FAB094B7F8B094C6
:101CA000A5019401C701B6010E940B1EF301228118
:101CB000338187FF05C0448D558D668D778D05C0B6
:101CC000F30146895789608D718DC9010E94CA1040
:101CD00080E090E0A0E8B0E4F30186839783A087DA
:101CE000B18782879387A487B5878DEC9CECACEC99
:101CF000BDE386879787A08BB18B828B938BA48B58
:101D0000B58BF301E280F3806BE0C7010E94A11064
:101D1000882369F043E353E363E77FE3C7010E944D
:101D20005412F301828193810E94620CEACF0F90DA
:101D3000DF91CF911F910F91FF90EF90DF90CF90A7
:101D4000BF90AF909F908F907F906F900895CF92AB
:101D5000DF92EF92FF920F931F93CF93DF936C016B
:101D60007A018B01C0E0D0E0CE15DF0589F0D80103
:101D70006D918D01D601ED91FC910190F081E02DE6
:101D8000C6010995892B11F47E0102C02196ECCF82
:101D9000C701DF91CF911F910F91FF90EF90DF90DE
:101DA000CF900895FC01918D828D981761F0828DFE
:101DB000DF01A80FB11D5D968C91928D9F5F9F737F
:101DC000928F90E008958FEF9FEF0895FC01918D21
:101DD000828D981731F0828DE80FF11D858D90E08E
:101DE00008958FEF9FEF0895FC01918D228D892F2B
:101DF00090E0805C9F4F821B91098F739927089513
:101E000083EE91E00E94F40E21E0892B09F420E09A
:101E1000822F0895FC01848DDF01A80FB11DA35A04
:101E2000BF4F2C91848D90E001968F739927848FFA
:101E3000A689B7892C93A089B1898C9180648C93F1
:101E4000938D848D981306C00288F389E02D8081DC
:101E50008F7D80830895EF92FF920F931F93CF930E
:101E6000DF93EC0181E0888F9B8D8C8D981305C0EA
:101E7000E889F989808185FD24C0F62E0B8D10E05C
:101E80000F5F1F4F0F731127E02E8C8DE8120CC0CF
:101E90000FB607FCFACFE889F989808185FFF5CF75
:101EA000CE010E940A0FF1CF8B8DFE01E80FF11DCC
:101EB000E35AFF4FF0820B8FEA89FB8980818062B1
:101EC00007C0EE89FF896083E889F9898081806491
:101ED000808381E090E0DF91CF911F910F91FF907F
:101EE000EF900895CF93DF93EC01888D8823C9F09C
:101EF000EA89FB89808185FD05C0A889B9898C9113
:101F000086FD0FC00FB607FCF5CF808185FFF2CFAD
:101F1000A889B9898C9185FFEDCFCE010E940A0F67
:101F2000E7CFDF91CF91089580E090E0892B29F0F1
:101F30000E94000F81110C94000008950E94931DCF
:101F40003FB7F8948091DF019091E001A091E10109
:101F5000B091E20126B5A89B05C02F3F19F001966C
:101F6000A11DB11D3FBFBA2FA92F982F8827820F1F
:101F7000911DA11DB11DBC01CD0142E0660F771F6F
:101F8000881F991F4A95D1F708958F929F92AF921B
:101F9000BF92CF92DF92EF92FF926B017C010E9481
:101FA000A00F4B015C01C114D104E104F104F1F074
:101FB0000E94A00FDC01CB0188199909AA09BB096D
:101FC000883E9340A105B10570F321E0C21AD10803
:101FD000E108F10888EE880E83E0981EA11CB11C70
:101FE000C114D104E104F10419F7DDCFFF90EF90A3
:101FF000DF90CF90BF90AF909F908F9008951F92E9
:102000000F920FB60F9211242F933F938F939F93AC
:10201000AF93BF938091DB019091DC01A091DD0132
:10202000B091DE013091DA0123E0230F2D3720F447
:102030000196A11DB11D05C026E8230F0296A11D22
:10204000B11D2093DA018093DB019093DC01A09312
:10205000DD01B093DE018091DF019091E001A0915C
:10206000E101B091E2010196A11DB11D8093DF0154
:102070009093E001A093E101B093E201BF91AF9191
:102080009F918F913F912F910F900FBE0F901F90B6
:1020900018951F920F920FB60F9211242F933F9312
:1020A0004F935F936F937F938F939F93AF93BF9360
:1020B000EF93FF9383EE91E00E940A0FFF91EF915F
:1020C000BF91AF919F918F917F916F915F914F9150
:1020D0003F912F910F900FBE0F901F9018951F9258
:1020E0000F920FB60F9211242F938F939F93EF931C
:1020F000FF93E091F301F091F4018081E091F90107
:10210000F091FA0182FD12C090818091FC018F5FF5
:102110008F732091FD01821751F0E091FC01F0E0F6
:10212000ED51FE4F958F8093FC0101C08081FF919E
:10213000EF919F918F912F910F900FBE0F901F9055
:102140001895FC01E60FF11D658970E0FC01228104
:1021500033816217730728F40E94E006262F382F78
:1021600003C020E070E030E0872F90E0A0E0B0E016
:10217000830F911DA11DB11DBC01CD01620F711D09
:10218000811D911D23E030E040E050E00E94981F47
:10219000822F0895CF92DF92EF92FF920F931F93B9
:1021A000CF93DF93411551056105710551F4DF911E
:1021B000CF911F910F91FF90EF90DF90CF900C94F3
:1021C00062096A017B018C01C0E0D0E0F8018281E4
:1021D0009381C817D90730F4A7019601BE01C80141
:1021E0000E94FA072196C436D10581F7DF91CF917D
:1021F0001F910F91FF90EF90DF90CF9008950F9374
:102200001F93FC01E60FF11D5AE0459FE00DF11D03
:102210001124658970E0FC014281538164177507C0
:1022200030F4A90198011F910F910C94FA071F91A6
:102230000F910895FC01E60FF71F658970E0DC013E
:102240001296ED91FC9113976E177F0710F40C9482
:10225000FA070895FC0113868081823069F018F432
:10226000813031F00895833071F08430A9F0089501
:1022700084E083838483089583E08383848386E07A
:102280008583868308958383848396E095838683FC
:1022900085E087839087089592E09383948387E015
:1022A00085839683978380878187828708950F939C
:1022B0001F938095853560F4682F660F860F282F51
:1022C000209590E0A0E0B0E0BC01CD01822B21C0C0
:1022D0008A3A80F48555982F990F980F692F609549
:1022E000462F50E060E070E08A019B01192BC90184
:1022F000B8010FC08A5A682F660F860F282F2095C5
:1023000090E0A0E0B0E0DC0199278827BC01CD0176
:10231000722B1F910F910895DC018AE0689FA00144
:10232000112460E080E090E020E030E0F901E40F6B
:10233000F51FED5CFE4FEA0FFB1F7081772319F04C
:10234000820F931F6F5F2F5F3F4F2A30310571F768
:10235000662329F070E00E94681ACB0108958FEF80
:102360009FEF0895009769F0FC0101900020E9F7C4
:102370003197AF01481B590BBC0183EE91E00C94DF
:10238000A70E80E090E00895CF93DF930E94B211F2
:10239000EC018CEC91E00E94B2118C0F9D1FDF913B
:1023A000CF9108958F929F92AF92BF920F931F93F8
:1023B000CF93DF93CDB7DEB7A1970FB6F894DEBF0A
:1023C0000FBECDBF19A2423008F44AE08E010F5D66
:1023D0001F4F842E912CA12CB12CA50194010E9499
:1023E000981FE62FB901CA0101501109EA3014F40F
:1023F000E05D01C0E95CD801EC93232B242B252B55
:1024000061F7C8010E94B211A1960FB6F894DEBF21
:102410000FBECDBFDF91CF911F910F91BF90AF90B5
:102420009F908F9008951F93CF93DF9311E0180F23
:102430002091A9051217A1F1C091AA05D091AB0571
:102440002150B9F08F3F59F430E040E050E06FEF99
:102450007FEF80E090E00E942F1FB9010CC0812F18
:1024600090E0982F88270197622F70E00E94541AFD
:1024700002C060E070E0FE014091A6055091A70502
:10248000CF018C1B9D0B8417950740F44081469F1C
:10249000C001479F900D11249193EECF1093A90591
:1024A000DF91CF911F9108954F925F926F927F922B
:1024B0008F929F92AF92BF92DF92EF92FF920F9313
:1024C0001F93CF93DF937C014A015B0110E0612FE2
:1024D00070E0F7018281938168177907D8F5F701D9
:1024E000E60FF71FC589D0E0C817D90788F5BE01E8
:1024F000C7010E94E0062B013C0177278827992716
:102500000E94101EA50194010E94711E0E94681B6A
:10251000062F652D70E080E090E00E94101EA5015E
:1025200094010E94711E0E94681BD62E662D70E0D9
:1025300080E090E00E94101EA50194010E94711E8F
:102540000E94681B462F2D2DBE01C7010E94600806
:102550001F5FBDCFDF91CF911F910F91FF90EF9043
:10256000DF90BF90AF909F908F907F906F905F9023
:102570004F90089590E0FC01EE58FF4F3491FC011C
:10258000EA57FF4F2491FC01EC55FF4FE491EE23F5
:1025900009F43BC0332339F1333091F038F4313052
:1025A000A9F0323001F584B58F7D12C0373091F03B
:1025B0003830A1F03430B9F4809180008F7D03C0B1
:1025C000809180008F77809380000DC084B58F77D5
:1025D00084BD09C08091B0008F7703C08091B000A6
:1025E0008F7D8093B000F0E0EE0FFF1FE656FF4FA7
:1025F000A591B4918FB7F894EC91611103C0209527
:102600002E2301C02E2B2C938FBF0895CF93DF93E1
:1026100090E0FC01EA57FF4F2491FC01EC55FF4F7D
:102620008491882361F190E0880F991FFC01E8599B
:10263000FF4FC591D491FC01E656FF4FA591B4918F
:10264000611109C09FB7F8948881209582238883FF
:10265000EC912E230BC0623061F49FB7F89438815F
:10266000822F809583238883EC912E2B2C939FBF00
:1026700006C08FB7F894E8812E2B28838FBFDF9197
:10268000CF9108958E3008F08E50877080648093CB
:102690007C0080917A00806480937A0080917A0037
:1026A00086FDFCCF809178002091790090E0922BFC
:1026B0000895AF92BF92CF92DF92EF92FF920F9365
:1026C0001F93CF9360E0809168040E94BA126EEF6E
:1026D000E62E63E0F62EC0E07BE8C72EDD24D3941F
:1026E000EBE1AE2EE3E0BE2EC23069F0C33069F0FC
:1026F000C13011F060E001C061E0809166040E9489
:10270000BA1260E008C060E001C061E08091660438
:102710000E94BA1261E0809167040E94BA12C60159
:102720000197F1F700E010E005B9C801877099271B
:10273000892B19F4C5010197F1F7F70180810E94F7
:102740004213F701E00FF11F97FD039695958795CA
:102750009595879581830F5F1F4F0931110521F7EB
:10276000CF5FFAE1EF0EF11CC43009F0BDCF61E09C
:10277000809168040E94BA1220E030E0C901880FFD
:10278000991FF901E35BFB4FAC014B5F5F4FDF012A
:10279000AE54B1096C91DC01AF5CBA4F6C93DF01B0
:1027A000D4976C91DC01AA5CBA4F6C93DF015A9705
:1027B0006C91DC01AD59BA4F6C936191DC01A85961
:1027C000BA4F6C9301968417950709F72B5F3F4F1B
:1027D0002931310599F6CF911F910F91FF90EF901C
:1027E000DF90CF90BF90AF9008950F931F93CF933A
:1027F000DF93C9E6D4E0FE011192119285E0E13346
:10280000F807D1F70AE010E00E945913A1E3B5E000
:10281000E9E6F4E02D9180819181820F911D8193F1
:10282000919385E0E133F807A9F70150110961F7A9
:102830002AE030E088819981B9010E94681A699381
:10284000799385E0C133D807A9F7DF91CF911F9124
:102850000F9108958091AA059091AB05009711F012
:102860000E94311C8091A80587FD03C060E00C9494
:1028700006130895CF93DF93CDB7DEB760970FB6F9
:10288000F894DEBF0FBECDBF789484B5826084BD5E
:1028900084B5816084BD85B5826085BD85B5816064
:1028A00085BD80916E00816080936E0010928100E2
:1028B000809181008260809381008091810081609D
:1028C000809381008091800081608093800080915E
:1028D000B10084608093B1008091B00081608093EA
:1028E000B00080917A00846080937A0080917A00B1
:1028F000826080937A0080917A00816080937A0070
:1029000080917A00806880937A001092C10081E102
:102910000E944213BC01990F880B990B6115710538
:102920008105910511F00E94021E8091A80587FD86
:1029300008C061E00E94061360E08091A8050E9433
:10294000BA1281E08093A3058FEF0E94131282EAEE
:1029500095E00E94620CE091F301F091F40182E0B5
:102960008083E091EF01F091F0011082E091F1019C
:10297000F091F20180E180831092FB01E091F70178
:10298000F091F80186E08083E091F501F091F60185
:10299000808180618083E091F501F091F601808172
:1029A00088608083E091F501F091F6018081806874
:1029B0008083E091F501F091F60180818F7D808325
:1029C0000E94F51381E395E024E6280F2C8780917F
:1029D000810290918202909384028093830280917D
:1029E00080020E944213853531E093073CF4109237
:1029F00082021092810280E090E00EC085559140E5
:102A00008435914018F481E090E002C082E090E0CB
:102A100090938202809381028130910521F0029788
:102A200009F4C3C106C283EE91E00E94F40E1816A9
:102A300019060CF085C181E08093960586E995E042
:102A40000E942A118FEA91E00E94C4118BE090E06D
:102A50009E838D838091A10581111EC18D819E81F0
:102A600001979E838D83892B09F416C188EB91E031
:102A70000E94C41181E08093A105A12CB12CC12C2E
:102A8000D12C00E010E0E0919705F0919805EA0D57
:102A9000FB1DE00FF11F8081882309F451C01982CA
:102AA00040E5942E53EC852E67E4762E212C43C00E
:102AB000E22CF12CF701EE0FFF1FE756FA4F808151
:102AC000D801A81BB109F701EE0FFF1FE656FA4F18
:102AD0002081F601E21BF109AA9FB001AB9F700DA6
:102AE000700D1124EE9FC001EF9F900D900D1124E9
:102AF000680F791F072E000C880B990B0E94121E7D
:102B0000362E472E582E692E2981392D482D572DC6
:102B10000E940B1E239487FF0EC080919705909111
:102B20009805FC01EE0DFF1D20821092A10539824F
:102B3000942C852C762C80919605281608F4B8CF15
:102B40000F5F1F4F0A30110509F09DCFFFEFCF1A1D
:102B5000DF0A2AE0A20EB11C3AE0C316D10409F044
:102B600090CF409196054F83509197055D87809156
:102B700098058E870EEF13E0A1E0B0E0BC83AB8335
:102B80008B8181503F81831708F064CF4D85498345
:102B90005E855A83212C312C412C512C320173013A
:102BA000620153014201188A1F869101032C000C17
:102BB000440B550B288739874A875B87E981FA815F
:102BC0002F853889E20FF31F808190E04B815C8173
:102BD0008417950731F5B901330F880B990B0E94C3
:102BE000121E9B01AC01C501B4010E94831A4B0166
:102BF0005C01688579858A859B850E94121E9B01F0
:102C0000AC01C301B2010E94831A2B013C0120E0F8
:102C100030E040E85FE3C701B6010E94831A6B0110
:102C20007C018F8598890196988B8F870A9731F65A
:102C30009FEF291A390AA981BA811A96BA83A98302
:102C4000BAE02B16310409F0AECF180135E6231A8D
:102C50003EEF330AA7019601C501B4010E94EF1AA5
:102C60000E94681BD1016C935801B4E6AB1ABEEF09
:102C7000BB0AA7019601C301B2010E94EF1A0E948C
:102C8000681BF50160830E5F1F4F2B813C812F5F16
:102C90003F4F3C832B8374CF62E070E080E090E094
:102CA0000E94C91C6C01009731F0DC011C9262EC9F
:102CB00071E00E94A81D99E9E92E95E0F92E00E047
:102CC00010E08091960590E00817190774F584ECE0
:102CD00091E00E94B211F701608170E080E090E025
:102CE0004AE00E94D21186EC91E00E94B211D70115
:102CF0006C9170E080E090E04AE00E94D21188EC94
:102D000091E00E94B2112091960530E021503109E6
:102D10000217130721F086EC91E00E94B2110F5FB9
:102D20001F4FB2E0EB0EF11CCCCF8AEC91E00E9479
:102D3000C411C6010E94311C83EE91E00E94D20EA4
:102D40000E9459132091950530E009E614E0E1E373
:102D5000F5E041E0D8016D917D918D01808190E099
:102D6000861B970B97FF03C0919581959109821758
:102D7000930714F0408301C010823196BC85BE13C6
:102D8000E9CF8091EC039091ED03DC01ED91FC9192
:102D90000190F081E02D0995E091EC03F091ED03B5
:102DA000828193810E94620C44C00E94F51380913D
:102DB000D20181110BC08091A905815090E09093C0
:102DC000D1018093D00181E08093D20180E00E9404
:102DD000131282EA95E00E94620C8091D0010E9459
:102DE000131202E010E08091810290918202909390
:102DF000840280938302809180020E944213853571
:102E0000B1E09B072CF4109282021092810211C053
:102E1000855591408435914038F481E090E090935D
:102E200082028093810205C0109382020093810286
:102E3000DACF8091810290918202892BD1F4809126
:102E40008302909184020197A1F4809100018F5F29
:102E5000883090F010920001E0910001F0E0EE0F58
:102E6000FF1FE251FC4F808191819093ED0380938D
:102E7000EC030E94940FABCD80930001EDCF6F92D5
:102E80007F928F929F92AF92BF92CF92DF92EF92FA
:102E9000FF920F931F93CF93DF931092E60110924E
:102EA000E50188EE93E0A0E0B0E08093E701909325
:102EB000E801A093E901B093EA0183E791E09093E0
:102EC000E4018093E30185EC90E09093F00180931E
:102ED000EF0184EC90E09093F2018093F10180EC9B
:102EE00090E09093F4018093F30181EC90E0909353
:102EF000F6018093F50182EC90E09093F8018093C5
:102F0000F70186EC90E09093FA018093F90110921A
:102F1000FC011092FD011092FE011092FF0110922F
:102F2000A3051092A9051092B0051092B105109258
:102F3000B2051092B30581E08093AF058093AC0594
:102F40001092AD0592E09093AE058093A205CCE27D
:102F5000D1E0D093A705C093A6058CE291E00E9432
:102F60009C1B9093AB058093AA05009761F0DC0150
:102F7000FE011D923197E9F784E690E09093A50554
:102F80008093A40508C01092A7051092A605109280
:102F9000A5051092A40586E08093A8058091A3055D
:102FA000882341F061E086E00E94061360E086E03D
:102FB0000E94BA12EAEAF0E0E491F0E0EE0FFF1F9F
:102FC000E656FF4F859194919093B5058093B40593
:102FD000ECE8F0E0E491E093B60584E6EBE0F1E0A4
:102FE000A7EBB5E001900D928A95E1F7CEEFD3E023
:102FF000CE0129E1FC013196DF01322F1D923A9575
:10300000E9F74A96A4E086369A07A1F784E0809310
:10301000660485E0809367048DE08093680488EC03
:10302000E9E6F4E0DF011D928A95E9F784E6E1E341
:10303000F5E0DF011D928A95E9F761E08DE00E94DD
:10304000061360E08DE00E94BA121EE0188360E073
:103050008EE00E9406136A96B4E0C636DB07B1F72D
:10306000C8E061E08C2F0E940613CF5FCD30C9F716
:1030700061E084E00E94061361E085E00E9406138F
:1030800060E084E00E94BA1260E085E00E94BA121B
:10309000CEEFD3E02AE0F22EF092950581E0809306
:1030A000960581E395E0909398058093970510929B
:1030B000A10586E995E00E942A1102EA15E0109325
:1030C000880200938702D0938A02C093890283E822
:1030D00091E0909386028093850210928C02109268
:1030E0008B0284E1EDE8F2E0DF011D928A95E9F7B9
:1030F0001093A4020093A302D093A602C093A5024A
:103100008DEA91E09093A2028093A1021092A8020E
:103110001092A7021093AC020093AB02D093AE02C0
:10312000C093AD0289E891E09093AA028093A9022E
:1031300040E050E06FEF70E08FEA92E00E942E06D0
:1031400040E05FEF60E070E083ED92E00E942E06C9
:103150004FEF50E060E070E087EF92E00E942E06B3
:1031600010921C0310921B031093200300931F0363
:10317000D0932203C093210387EA91E090931E032A
:1031800080931D03109224031092230386EB93EF88
:10319000ADE7BFE38093250390932603A093270315
:1031A000B0932803F092290310932D0300932C036E
:1031B000D0932F03C0932E038FE891E090932B03BD
:1031C00080932A0386EA9BE9A4E4BBE3809330035F
:1031D00090933103A0933203B0933303C0E06C2F7C
:1031E00070E08091A4059091A5056817790748F4CF
:1031F00020E030E0A90182EA95E00E941A11CF5F39
:10320000EECF82EA95E090933703809336038EEFFA
:1032100093E0909339038093380385E991E090938C
:10322000350380933403C0E0D0E0CE01865C9C4F30
:103230000E9473052A96C436D105B9F782EA95E053
:103240009093A1038093A0038EEF93E09093A30348
:103250008093A2038BE991E090939F0380939E0358
:1032600000E010E0C4EAD3E077247A948AE0882E64
:10327000912CA12CB12C98E0C92ED12CE12CF12C51
:10328000C8018B579D4FFC01E15DFE4F66246A9497
:10329000708231967082319670820E94FD1DA50168
:1032A00094010E942F1F0E94121E688379838A83D3
:1032B0009B830E94FD1DA50194010E942F1F0E9467
:1032C000121E6C837D838E839F830E94FD1DA70148
:1032D00096010E942F1F0E94121E20E030E040E263
:1032E00051E40E94EF1A2DEC3CEC4CE45EE30E94AA
:1032F000831A688779878A879B870E94FD1DA701AB
:1033000096010E942F1F0E94121E20E030E040E232
:1033100051E40E94EF1A2DEC3CEC4CE45EE30E9479
:10332000831A6C877D878E879F8763960D5E1F4FFC
:103330000632110509F0A4CF6092B4031092B503D0
:103340001092B6031092C7031092C8036092C9038B
:1033500082EA95E09093CD038093CC038EEF93E0C7
:103360009093CF038093CE038AEC93E021EA31E07F
:103370003093CB032093CA0340E050E060E870E450
:103380004093D0035093D1036093D2037093D3033F
:103390004093D4035093D5036093D6037093D7031F
:1033A0004DEC5CEC6CEC7DE34093D8035093D90377
:1033B0006093DA037093DB034093DC035093DD03E7
:1033C0006093DE037093DF0340E050E06FEF70E046
:1033D0004093E0035093E1036093E2037093E303AF
:1033E0001092E50324E02093E4034FEF50E060E007
:1033F00070E04093E6035093E7036093E803709313
:10340000E90339E03093EB032093EA0325E832E047
:103410003093EF032093EE0321EA32E03093F1037F
:103420002093F0032DE133E03093F3032093F20374
:103430002AE233E03093F5032093F40329EA32E0E3
:103440003093F7032093F60324E333E03093F9033A
:103450002093F8032EE933E03093FB032093FA0323
:103460009093FD038093FC039093ED038093EC0312
:103470008FE080938002109282021092810210925B
:1034800084021092830260E0DF91CF911F910F912F
:10349000FF90EF90DF90CF90BF90AF909F908F9074
:1034A0007F906F900C940613AA1BBB1B51E107C0C1
:1034B000AA1FBB1FA617B70710F0A61BB70B881FC4
:1034C000991F5A95A9F780959095BC01CD01089553
:1034D00097FB072E16F4009407D077FD09D00E94C1
:1034E000541A07FC05D03EF4909581959F4F08959E
:1034F000709561957F4F0895EE0FFF1F0590F49131
:10350000E02D09945058BB27AA270E949A1A0C94C0
:10351000F51E0E94E71E38F00E94EE1E20F039F4DE
:103520009F3F19F426F40C94E41E0EF4E095E7FB9B
:103530000C94DE1EE92F0E94061F58F3BA1762078B
:1035400073078407950720F079F4A6F50C94281FDB
:103550000EF4E0950B2EBA2FA02D0B01B9019001AE
:103560000C01CA01A0011124FF27591B99F0593FF2
:1035700050F4503E68F11A16F040A22F232F342F3A
:103580004427585FF3CF469537952795A795F04088
:103590005395C9F77EF41F16BA0B620B730B840B9D
:1035A000BAF09150A1F0FF0FBB1F661F771F881F55
:1035B000C2F70EC0BA0F621F731F841F48F48795AD
:1035C00077956795B795F7959E3F08F0B0CF93959F
:1035D000880F08F09927EE0F9795879508950E9418
:1035E000031B0C94F51E0E94EE1E58F00E94E71E6D
:1035F00040F029F45F3F29F00C94DE1E51110C9429
:10360000291F0C94E41E0E94061F68F39923B1F34E
:10361000552391F3951B550BBB27AA2762177307F8
:10362000840738F09F5F5F4F220F331F441FAA1F8C
:10363000A9F335D00E2E3AF0E0E832D09150504048
:10364000E695001CCAF72BD0FE2F29D0660F771FF6
:10365000881FBB1F261737074807AB07B0E809F0DC
:10366000BB0B802DBF01FF2793585F4F3AF09E3F61
:10367000510578F00C94DE1E0C94291F5F3FE4F393
:10368000983ED4F3869577956795B795F7959F5FA4
:10369000C9F7880F911D9695879597F90895E1E0F0
:1036A000660F771F881FBB1F621773078407BA074F
:1036B00020F0621B730B840BBA0BEE1F88F7E095AA
:1036C00008950E94681B6894B1110C94291F0895F5
:1036D0000E940E1F88F09F5798F0B92F9927B75175
:1036E000B0F0E1F0660F771F881F991F1AF0BA95A6
:1036F000C9F714C0B13091F00E94281FB1E00895BD
:103700000C94281F672F782F8827B85F39F0B93FAE
:10371000CCF3869577956795B395D9F73EF4909558
:103720008095709561957F4F8F4F9F4F08950E94B0
:103730004D1E08F48FEF0895CF93DF9382309105EB
:1037400010F482E090E0E0911D06F0911E0620E06A
:1037500030E0C0E0D0E0309711F14081518148174E
:103760005907C0F04817590761F482819381209767
:1037700019F09B838A832BC090931E0680931D06AD
:1037800026C02115310519F04217530718F49A0184
:10379000BE01DF01EF010280F381E02DDCCF2115B6
:1037A000310509F1281B390B2430310590F41296AC
:1037B0008D919C9113976115710521F0FB01938305
:1037C000828304C090931E0680931D06FD013296ED
:1037D00044C0FD01E20FF31F819391932250310900
:1037E0002D933C933AC020911B0630911C06232B4D
:1037F00041F4209103013091040130931C06209381
:103800001B0620910101309102012115310541F47F
:103810002DB73EB74091050150910601241B350B91
:10382000E0911B06F0911C06E217F307A0F42E1B93
:103830003F0B2817390778F0AC014E5F5F4F241714
:10384000350748F04E0F5F1F50931C0640931B0630
:103850008193919302C0E0E0F0E0CF01DF91CF913E
:1038600008950F931F93CF93DF93009709F48CC0B3
:10387000FC0132971382128200911D0610911E06E0
:103880000115110581F420813181820F931F209150
:103890001B0630911C062817390779F5F0931C0692
:1038A000E0931B0671C0D80140E050E0AE17BF079F
:1038B00050F412962D913C911397AD0121153105CD
:1038C00009F1D901F3CF9D01DA01338322836081AD
:1038D0007181860F971F8217930769F4EC01288185
:1038E0003981260F371F2E5F3F4F318320838A8116
:1038F0009B8193838283452B29F4F0931E06E093EA
:103900001D0642C01396FC93EE931297ED01499168
:1039100059919E01240F351FE217F30771F480813E
:103920009181840F951F029611969C938E938281AC
:10393000938113969C938E931297E0E0F0E0D80168
:1039400012968D919C911397009719F0F8018C01B4
:10395000F6CF8D919C9198012E5F3F4F820F931F60
:1039600020911B0630911C062817390769F43097FF
:1039700029F410921E0610921D0602C013821282B4
:1039800010931C0600931B06DF91CF911F910F919E
:103990000895A0E0B0E0EFECFCE10C94651FEC01B1
:1039A000009721F4CB010E949C1BB8C0FC01E60FDC
:1039B000F71F9C0122503109E217F30708F4ACC04D
:1039C000D9010D911C91119706171707B0F005301A
:1039D000110508F49FC0C80104978617970708F4DB
:1039E00099C002501109061B170B019311936D9397
:1039F0007C93CF010E94311C8DC05B01A01AB10ADB
:103A00004C01800E911EA0911D06B0911E0640E053
:103A100050E0E12CF12C109709F44AC0A815B90523
:103A2000D1F56D907C901197630182E0C80ED11C96
:103A3000CA14DB0480F1A3014A195B096A0182E020
:103A4000C80ED11C1296BC9012971396AC91B5E09B
:103A5000CB16D10440F0B282A38351834083D901B5
:103A60006D937C930AC00E5F1F4FC301800F911F9F
:103A7000F90191838083EB2DFA2FE114F10431F0E9
:103A8000D7011396FC93EE93129744C0F0931E0651
:103A9000E0931D063FC08D919C91119748175907DF
:103AA00008F4AC017D0112960D90BC91A02DB3CF0E
:103AB00080911B0690911C0688159905E1F4461724
:103AC0005707C8F48091010190910201009741F4D9
:103AD0008DB79EB74091050150910601841B950B4F
:103AE000E817F907C8F4F0931C06E0931B06F901E8
:103AF000718360830FC0CB010E949C1B7C010097E7
:103B000059F0A801BE010E94981DCE010E94311CEF
:103B1000C70104C0CE0102C080E090E0CDB7DEB79F
:103B2000EEE00C94811F81E090E0F8940C94C91FA2
:103B3000FB01DC0102C001900D9241505040D8F7CA
:103B40000895DC0101C06D9341505040E0F70895A5
:103B5000FB01DC0101900D920020E1F708958F92A6
:103B60009F92AF92BF92CF92DF92EF92FF92CF934C
:103B7000DF93EC01688179818A819B8161157105F0
:103B80008105910521F464E279ED8BE597E02DE163
:103B900033EF41E050E00E942F1F49015A019B0181
:103BA000AC01A7EAB1E40E944E1F6B017C01ACEEB0
:103BB000B4EFA50194010E945C1FDC01CB018C0DC8
:103BC0009D1DAE1DBF1DB7FF03C00197A109B048E1
:103BD00088839983AA83BB83BC01CD019F77DF9142
:103BE000CF91FF90EF90DF90CF90BF90AF909F90DC
:103BF0008F9008950E94AF1D089587E091E00E9484
:103C0000AF1D089560930701709308018093090127
:103C100090930A0108950E944D1E08F481E00895D2
:103C2000E89409C097FB3EF4909580957095619556
:103C30007F4F8F4F9F4F9923A9F0F92F96E9BB270C
:103C40009395F695879577956795B795F111F8CF88
:103C5000FAF4BB0F11F460FF1BC06F5F7F4F8F4FF3
:103C60009F4F16C0882311F096E911C0772321F0E9
:103C70009EE8872F762F05C0662371F096E8862F81
:103C800070E060E02AF09A95660F771F881FDAF7D8
:103C9000880F9695879597F90895990F0008550F05
:103CA000AA0BE0E8FEEF16161706E807F907C0F0C2
:103CB00012161306E407F50798F0621B730B840BCA
:103CC000950B39F40A2661F0232B242B252B21F4A4
:103CD00008950A2609F4A140A6958FEF811D811D44
:103CE00008950E94841E0C94F51E0E94E71E38F071
:103CF0000E94EE1E20F0952311F00C94DE1E0C9411
:103D0000E41E11240C94291F0E94061F70F3959F36
:103D1000C1F3950F50E0551F629FF001729FBB27C2
:103D2000F00DB11D639FAA27F00DB11DAA1F649F5E
:103D30006627B00DA11D661F829F2227B00DA11D11
:103D4000621F739FB00DA11D621F839FA00D611D97
:103D5000221F749F3327A00D611D231F849F600DB8
:103D6000211D822F762F6A2F11249F5750409AF0E1
:103D7000F1F088234AF0EE0FFF1FBB1F661F771F6D
:103D8000881F91505040A9F79E3F510580F00C9438
:103D9000DE1E0C94291F5F3FE4F3983ED4F3869512
:103DA00077956795B795F795E7959F5FC1F7FE2BD8
:103DB000880F911D9695879597F9089597F99F67B4
:103DC00080E870E060E008959FEF80EC08950024A3
:103DD0000A941616170618060906089500240A9470
:103DE00012161306140605060895092E0394000CF6
:103DF00011F4882352F0BB0F40F4BF2B11F460FF85
:103E000004C06F5F7F4F8F4F9F4F089557FD9058AD
:103E1000440F551F59F05F3F71F04795880F97FB8E
:103E2000991F61F09F3F79F0879508951216130648
:103E30001406551FF2CF4695F1DF08C01616170677
:103E40001806991FF1CF86957105610508940895AC
:103E5000E894BB2766277727CB0197F90895052EAD
:103E600097FB1EF400940E94461F57FD07D00E9446
:103E7000981F07FC03D04EF40C94461F50954095B4
:103E8000309521953F4F4F4F5F4F08959095809506
:103E9000709561957F4F8F4F9F4F08950E94BA1F75
:103EA000A59F900DB49F900DA49F800D911D11248E
:103EB0000895B7FF0C944E1F0E944E1F821B930B58
:103EC00008952F923F924F925F926F927F928F92BE
:103ED0009F92AF92BF92CF92DF92EF92FF920F9399
:103EE0001F93CF93DF93CDB7DEB7CA1BDB0B0FB6A3
:103EF000F894DEBF0FBECDBF09942A883988488860
:103F00005F846E847D848C849B84AA84B984C884F5
:103F1000DF80EE80FD800C811B81AA81B981CE0FEC
:103F2000D11D0FB6F894DEBF0FBECDBFED010895D1
:103F3000A1E21A2EAA1BBB1BFD010DC0AA1FBB1FAD
:103F4000EE1FFF1FA217B307E407F50720F0A21B1F
:103F5000B30BE40BF50B661F771F881F991F1A948C
:103F600069F760957095809590959B01AC01BD01B6
:103F7000CF010895A29FB001B39FC001A39F700D10
:103F8000811D1124911DB29F700D811D1124911D61
:103F9000089510E0CDE5D0E004C0FE010E947C1A37
:0C3FA0002196CE35D107C9F7F894FFCF69
:103FAC000700001F0680000100000000010203044E
:103FBC00191A1B1C1D05060708091E1F2021220AA1
:103FCC000B0C0D0E23242526270F10111213282954
:103FDC002A2B2C14151617182D2E2F303132333462
:103FEC0035364B4C4D4E4F3738393A3B5051525376
:103FFC00543C3D3E3F405556575859414243444529
:10400C005A5B5C5D5E464748494A5F60616263008B
:10401C000000002B0FA70EF40ED20EE60E720F004E
:10402C000000006B09000000007C0400000000D0C0
:10403C000400000000A1050000000076090000004B
:10404C0000280D00000000A90800000000370565DD
:10405C006E746572696E6700636F6D707574696EEE
:10406C0067007B005B002C005D007D000D0A0000EA
:00000001FF
